{
  "contractName": "Land",
  "abi": [
    {
      "inputs": [],
      "payable": false,
      "stateMutability": "nonpayable",
      "type": "constructor"
    },
    {
      "anonymous": false,
      "inputs": [
        {
          "indexed": true,
          "internalType": "uint256",
          "name": "_landId",
          "type": "uint256"
        }
      ],
      "name": "AddingLand",
      "type": "event"
    },
    {
      "anonymous": false,
      "inputs": [
        {
          "indexed": true,
          "internalType": "uint256",
          "name": "_landId",
          "type": "uint256"
        },
        {
          "indexed": true,
          "internalType": "address",
          "name": "_seller",
          "type": "address"
        }
      ],
      "name": "LandAdded",
      "type": "event"
    },
    {
      "anonymous": false,
      "inputs": [
        {
          "indexed": true,
          "internalType": "uint256",
          "name": "_landId",
          "type": "uint256"
        }
      ],
      "name": "LandApproved",
      "type": "event"
    },
    {
      "anonymous": false,
      "inputs": [
        {
          "indexed": true,
          "internalType": "uint256",
          "name": "landId",
          "type": "uint256"
        },
        {
          "indexed": true,
          "internalType": "address",
          "name": "seller",
          "type": "address"
        },
        {
          "indexed": true,
          "internalType": "address",
          "name": "buyer",
          "type": "address"
        }
      ],
      "name": "LandOwnershipTransferred",
      "type": "event"
    },
    {
      "anonymous": false,
      "inputs": [
        {
          "indexed": false,
          "internalType": "address",
          "name": "_sellerId",
          "type": "address"
        }
      ],
      "name": "Landrequested",
      "type": "event"
    },
    {
      "anonymous": false,
      "inputs": [
        {
          "indexed": true,
          "internalType": "uint256",
          "name": "_landId",
          "type": "uint256"
        },
        {
          "indexed": true,
          "internalType": "address",
          "name": "_seller",
          "type": "address"
        },
        {
          "indexed": true,
          "internalType": "address",
          "name": "_buyer",
          "type": "address"
        }
      ],
      "name": "PaymentMade",
      "type": "event"
    },
    {
      "anonymous": false,
      "inputs": [
        {
          "indexed": false,
          "internalType": "address",
          "name": "_registrationId",
          "type": "address"
        }
      ],
      "name": "Registration",
      "type": "event"
    },
    {
      "anonymous": false,
      "inputs": [
        {
          "indexed": true,
          "internalType": "uint256",
          "name": "_landId",
          "type": "uint256"
        },
        {
          "indexed": true,
          "internalType": "address",
          "name": "_seller",
          "type": "address"
        },
        {
          "indexed": true,
          "internalType": "address",
          "name": "_buyer",
          "type": "address"
        }
      ],
      "name": "SaleApproved",
      "type": "event"
    },
    {
      "anonymous": false,
      "inputs": [
        {
          "indexed": true,
          "internalType": "uint256",
          "name": "_landId",
          "type": "uint256"
        },
        {
          "indexed": true,
          "internalType": "address",
          "name": "_seller",
          "type": "address"
        },
        {
          "indexed": true,
          "internalType": "address",
          "name": "_buyer",
          "type": "address"
        }
      ],
      "name": "SaleRequested",
      "type": "event"
    },
    {
      "anonymous": false,
      "inputs": [
        {
          "indexed": false,
          "internalType": "address",
          "name": "_buyerId",
          "type": "address"
        }
      ],
      "name": "requestApproved",
      "type": "event"
    },
    {
      "constant": true,
      "inputs": [
        {
          "internalType": "address",
          "name": "",
          "type": "address"
        }
      ],
      "name": "BuyerMapping",
      "outputs": [
        {
          "internalType": "address",
          "name": "id",
          "type": "address"
        },
        {
          "internalType": "string",
          "name": "name",
          "type": "string"
        },
        {
          "internalType": "uint256",
          "name": "age",
          "type": "uint256"
        },
        {
          "internalType": "string",
          "name": "city",
          "type": "string"
        },
        {
          "internalType": "string",
          "name": "HKID",
          "type": "string"
        },
        {
          "internalType": "string",
          "name": "email",
          "type": "string"
        }
      ],
      "payable": false,
      "stateMutability": "view",
      "type": "function"
    },
    {
      "constant": true,
      "inputs": [
        {
          "internalType": "uint256",
          "name": "",
          "type": "uint256"
        }
      ],
      "name": "LandOwner",
      "outputs": [
        {
          "internalType": "address",
          "name": "",
          "type": "address"
        }
      ],
      "payable": false,
      "stateMutability": "view",
      "type": "function"
    },
    {
      "constant": true,
      "inputs": [
        {
          "internalType": "uint256",
          "name": "",
          "type": "uint256"
        }
      ],
      "name": "PaymentReceived",
      "outputs": [
        {
          "internalType": "bool",
          "name": "",
          "type": "bool"
        }
      ],
      "payable": false,
      "stateMutability": "view",
      "type": "function"
    },
    {
      "constant": true,
      "inputs": [
        {
          "internalType": "address",
          "name": "",
          "type": "address"
        }
      ],
      "name": "RegisteredAddressMapping",
      "outputs": [
        {
          "internalType": "bool",
          "name": "",
          "type": "bool"
        }
      ],
      "payable": false,
      "stateMutability": "view",
      "type": "function"
    },
    {
      "constant": true,
      "inputs": [
        {
          "internalType": "address",
          "name": "",
          "type": "address"
        }
      ],
      "name": "RegisteredBuyerMapping",
      "outputs": [
        {
          "internalType": "bool",
          "name": "",
          "type": "bool"
        }
      ],
      "payable": false,
      "stateMutability": "view",
      "type": "function"
    },
    {
      "constant": true,
      "inputs": [
        {
          "internalType": "address",
          "name": "",
          "type": "address"
        }
      ],
      "name": "RegisteredSellerMapping",
      "outputs": [
        {
          "internalType": "bool",
          "name": "",
          "type": "bool"
        }
      ],
      "payable": false,
      "stateMutability": "view",
      "type": "function"
    },
    {
      "constant": true,
      "inputs": [
        {
          "internalType": "uint256",
          "name": "",
          "type": "uint256"
        }
      ],
      "name": "RequestStatus",
      "outputs": [
        {
          "internalType": "bool",
          "name": "",
          "type": "bool"
        }
      ],
      "payable": false,
      "stateMutability": "view",
      "type": "function"
    },
    {
      "constant": true,
      "inputs": [
        {
          "internalType": "uint256",
          "name": "",
          "type": "uint256"
        }
      ],
      "name": "RequestedLands",
      "outputs": [
        {
          "internalType": "bool",
          "name": "",
          "type": "bool"
        }
      ],
      "payable": false,
      "stateMutability": "view",
      "type": "function"
    },
    {
      "constant": true,
      "inputs": [
        {
          "internalType": "uint256",
          "name": "",
          "type": "uint256"
        }
      ],
      "name": "RequestsMapping",
      "outputs": [
        {
          "internalType": "uint256",
          "name": "reqId",
          "type": "uint256"
        },
        {
          "internalType": "address",
          "name": "sellerId",
          "type": "address"
        },
        {
          "internalType": "address",
          "name": "buyerId",
          "type": "address"
        },
        {
          "internalType": "uint256",
          "name": "landId",
          "type": "uint256"
        }
      ],
      "payable": false,
      "stateMutability": "view",
      "type": "function"
    },
    {
      "constant": true,
      "inputs": [
        {
          "internalType": "address",
          "name": "",
          "type": "address"
        }
      ],
      "name": "SellerMapping",
      "outputs": [
        {
          "internalType": "address",
          "name": "id",
          "type": "address"
        },
        {
          "internalType": "string",
          "name": "name",
          "type": "string"
        },
        {
          "internalType": "uint256",
          "name": "age",
          "type": "uint256"
        },
        {
          "internalType": "string",
          "name": "HKID",
          "type": "string"
        }
      ],
      "payable": false,
      "stateMutability": "view",
      "type": "function"
    },
    {
      "constant": true,
      "inputs": [
        {
          "internalType": "uint256",
          "name": "",
          "type": "uint256"
        }
      ],
      "name": "buyers",
      "outputs": [
        {
          "internalType": "address",
          "name": "",
          "type": "address"
        }
      ],
      "payable": false,
      "stateMutability": "view",
      "type": "function"
    },
    {
      "constant": true,
      "inputs": [],
      "name": "buyersCount",
      "outputs": [
        {
          "internalType": "uint256",
          "name": "",
          "type": "uint256"
        }
      ],
      "payable": false,
      "stateMutability": "view",
      "type": "function"
    },
    {
      "constant": true,
      "inputs": [
        {
          "internalType": "uint256",
          "name": "",
          "type": "uint256"
        }
      ],
      "name": "landApprovalStatus",
      "outputs": [
        {
          "internalType": "bool",
          "name": "",
          "type": "bool"
        }
      ],
      "payable": false,
      "stateMutability": "view",
      "type": "function"
    },
    {
      "constant": true,
      "inputs": [],
      "name": "landInspector",
      "outputs": [
        {
          "internalType": "address",
          "name": "",
          "type": "address"
        }
      ],
      "payable": false,
      "stateMutability": "view",
      "type": "function"
    },
    {
      "constant": true,
      "inputs": [
        {
          "internalType": "uint256",
          "name": "",
          "type": "uint256"
        }
      ],
      "name": "lands",
      "outputs": [
        {
          "internalType": "uint256",
          "name": "id",
          "type": "uint256"
        },
        {
          "internalType": "string",
          "name": "landAddress",
          "type": "string"
        },
        {
          "internalType": "string",
          "name": "area",
          "type": "string"
        },
        {
          "internalType": "string",
          "name": "city",
          "type": "string"
        },
        {
          "internalType": "string",
          "name": "district",
          "type": "string"
        },
        {
          "internalType": "string",
          "name": "country",
          "type": "string"
        },
        {
          "internalType": "uint256",
          "name": "landPrice",
          "type": "uint256"
        },
        {
          "internalType": "string",
          "name": "propertyID",
          "type": "string"
        }
      ],
      "payable": false,
      "stateMutability": "view",
      "type": "function"
    },
    {
      "constant": true,
      "inputs": [],
      "name": "landsCount",
      "outputs": [
        {
          "internalType": "uint256",
          "name": "",
          "type": "uint256"
        }
      ],
      "payable": false,
      "stateMutability": "view",
      "type": "function"
    },
    {
      "constant": true,
      "inputs": [],
      "name": "requestsCount",
      "outputs": [
        {
          "internalType": "uint256",
          "name": "",
          "type": "uint256"
        }
      ],
      "payable": false,
      "stateMutability": "view",
      "type": "function"
    },
    {
      "constant": true,
      "inputs": [
        {
          "internalType": "uint256",
          "name": "",
          "type": "uint256"
        }
      ],
      "name": "saleApprovalStatus",
      "outputs": [
        {
          "internalType": "bool",
          "name": "",
          "type": "bool"
        }
      ],
      "payable": false,
      "stateMutability": "view",
      "type": "function"
    },
    {
      "constant": true,
      "inputs": [
        {
          "internalType": "uint256",
          "name": "",
          "type": "uint256"
        }
      ],
      "name": "sellers",
      "outputs": [
        {
          "internalType": "address",
          "name": "",
          "type": "address"
        }
      ],
      "payable": false,
      "stateMutability": "view",
      "type": "function"
    },
    {
      "constant": true,
      "inputs": [],
      "name": "sellersCount",
      "outputs": [
        {
          "internalType": "uint256",
          "name": "",
          "type": "uint256"
        }
      ],
      "payable": false,
      "stateMutability": "view",
      "type": "function"
    },
    {
      "constant": true,
      "inputs": [],
      "name": "getLandsCount",
      "outputs": [
        {
          "internalType": "uint256",
          "name": "",
          "type": "uint256"
        }
      ],
      "payable": false,
      "stateMutability": "view",
      "type": "function"
    },
    {
      "constant": true,
      "inputs": [],
      "name": "getBuyersCount",
      "outputs": [
        {
          "internalType": "uint256",
          "name": "",
          "type": "uint256"
        }
      ],
      "payable": false,
      "stateMutability": "view",
      "type": "function"
    },
    {
      "constant": true,
      "inputs": [],
      "name": "getSellersCount",
      "outputs": [
        {
          "internalType": "uint256",
          "name": "",
          "type": "uint256"
        }
      ],
      "payable": false,
      "stateMutability": "view",
      "type": "function"
    },
    {
      "constant": true,
      "inputs": [],
      "name": "getRequestsCount",
      "outputs": [
        {
          "internalType": "uint256",
          "name": "",
          "type": "uint256"
        }
      ],
      "payable": false,
      "stateMutability": "view",
      "type": "function"
    },
    {
      "constant": true,
      "inputs": [
        {
          "internalType": "uint256",
          "name": "i",
          "type": "uint256"
        }
      ],
      "name": "getArea",
      "outputs": [
        {
          "internalType": "string",
          "name": "",
          "type": "string"
        }
      ],
      "payable": false,
      "stateMutability": "view",
      "type": "function"
    },
    {
      "constant": true,
      "inputs": [
        {
          "internalType": "uint256",
          "name": "i",
          "type": "uint256"
        }
      ],
      "name": "getCity",
      "outputs": [
        {
          "internalType": "string",
          "name": "",
          "type": "string"
        }
      ],
      "payable": false,
      "stateMutability": "view",
      "type": "function"
    },
    {
      "constant": true,
      "inputs": [
        {
          "internalType": "uint256",
          "name": "i",
          "type": "uint256"
        }
      ],
      "name": "getDistrict",
      "outputs": [
        {
          "internalType": "string",
          "name": "",
          "type": "string"
        }
      ],
      "payable": false,
      "stateMutability": "view",
      "type": "function"
    },
    {
      "constant": true,
      "inputs": [
        {
          "internalType": "uint256",
          "name": "i",
          "type": "uint256"
        }
      ],
      "name": "getPrice",
      "outputs": [
        {
          "internalType": "uint256",
          "name": "",
          "type": "uint256"
        }
      ],
      "payable": false,
      "stateMutability": "view",
      "type": "function"
    },
    {
      "constant": true,
      "inputs": [
        {
          "internalType": "uint256",
          "name": "i",
          "type": "uint256"
        }
      ],
      "name": "getPID",
      "outputs": [
        {
          "internalType": "string",
          "name": "",
          "type": "string"
        }
      ],
      "payable": false,
      "stateMutability": "view",
      "type": "function"
    },
    {
      "constant": true,
      "inputs": [
        {
          "internalType": "uint256",
          "name": "id",
          "type": "uint256"
        }
      ],
      "name": "getLandOwner",
      "outputs": [
        {
          "internalType": "address",
          "name": "",
          "type": "address"
        }
      ],
      "payable": false,
      "stateMutability": "view",
      "type": "function"
    },
    {
      "constant": true,
      "inputs": [
        {
          "internalType": "address",
          "name": "_id",
          "type": "address"
        }
      ],
      "name": "isSeller",
      "outputs": [
        {
          "internalType": "bool",
          "name": "",
          "type": "bool"
        }
      ],
      "payable": false,
      "stateMutability": "view",
      "type": "function"
    },
    {
      "constant": true,
      "inputs": [
        {
          "internalType": "address",
          "name": "_id",
          "type": "address"
        }
      ],
      "name": "isBuyer",
      "outputs": [
        {
          "internalType": "bool",
          "name": "",
          "type": "bool"
        }
      ],
      "payable": false,
      "stateMutability": "view",
      "type": "function"
    },
    {
      "constant": true,
      "inputs": [
        {
          "internalType": "address",
          "name": "_id",
          "type": "address"
        }
      ],
      "name": "isRegistered",
      "outputs": [
        {
          "internalType": "bool",
          "name": "",
          "type": "bool"
        }
      ],
      "payable": false,
      "stateMutability": "view",
      "type": "function"
    },
    {
      "constant": false,
      "inputs": [
        {
          "internalType": "string",
          "name": "_landAddress",
          "type": "string"
        },
        {
          "internalType": "string",
          "name": "_area",
          "type": "string"
        },
        {
          "internalType": "string",
          "name": "_city",
          "type": "string"
        },
        {
          "internalType": "string",
          "name": "_district",
          "type": "string"
        },
        {
          "internalType": "string",
          "name": "_country",
          "type": "string"
        },
        {
          "internalType": "uint256",
          "name": "_landPrice",
          "type": "uint256"
        },
        {
          "internalType": "string",
          "name": "_propertyID",
          "type": "string"
        }
      ],
      "name": "addLand",
      "outputs": [],
      "payable": false,
      "stateMutability": "nonpayable",
      "type": "function"
    },
    {
      "constant": false,
      "inputs": [
        {
          "internalType": "uint256",
          "name": "_landId",
          "type": "uint256"
        }
      ],
      "name": "approveLand",
      "outputs": [],
      "payable": false,
      "stateMutability": "nonpayable",
      "type": "function"
    },
    {
      "constant": true,
      "inputs": [
        {
          "internalType": "uint256",
          "name": "_landId",
          "type": "uint256"
        }
      ],
      "name": "getLandDetails",
      "outputs": [
        {
          "internalType": "uint256",
          "name": "",
          "type": "uint256"
        },
        {
          "internalType": "string",
          "name": "",
          "type": "string"
        },
        {
          "internalType": "string",
          "name": "",
          "type": "string"
        },
        {
          "internalType": "string",
          "name": "",
          "type": "string"
        },
        {
          "internalType": "string",
          "name": "",
          "type": "string"
        },
        {
          "internalType": "string",
          "name": "",
          "type": "string"
        },
        {
          "internalType": "uint256",
          "name": "",
          "type": "uint256"
        },
        {
          "internalType": "string",
          "name": "",
          "type": "string"
        }
      ],
      "payable": false,
      "stateMutability": "view",
      "type": "function"
    },
    {
      "constant": false,
      "inputs": [
        {
          "internalType": "string",
          "name": "_name",
          "type": "string"
        },
        {
          "internalType": "uint256",
          "name": "_age",
          "type": "uint256"
        },
        {
          "internalType": "string",
          "name": "_HKID",
          "type": "string"
        }
      ],
      "name": "registerSeller",
      "outputs": [],
      "payable": false,
      "stateMutability": "nonpayable",
      "type": "function"
    },
    {
      "constant": false,
      "inputs": [
        {
          "internalType": "string",
          "name": "_name",
          "type": "string"
        },
        {
          "internalType": "uint256",
          "name": "_age",
          "type": "uint256"
        },
        {
          "internalType": "string",
          "name": "_HKID",
          "type": "string"
        }
      ],
      "name": "updateSeller",
      "outputs": [],
      "payable": false,
      "stateMutability": "nonpayable",
      "type": "function"
    },
    {
      "constant": true,
      "inputs": [],
      "name": "getSeller",
      "outputs": [
        {
          "internalType": "address[]",
          "name": "",
          "type": "address[]"
        }
      ],
      "payable": false,
      "stateMutability": "view",
      "type": "function"
    },
    {
      "constant": true,
      "inputs": [
        {
          "internalType": "address",
          "name": "i",
          "type": "address"
        }
      ],
      "name": "getSellerDetails",
      "outputs": [
        {
          "internalType": "string",
          "name": "",
          "type": "string"
        },
        {
          "internalType": "uint256",
          "name": "",
          "type": "uint256"
        },
        {
          "internalType": "string",
          "name": "",
          "type": "string"
        }
      ],
      "payable": false,
      "stateMutability": "view",
      "type": "function"
    },
    {
      "constant": false,
      "inputs": [
        {
          "internalType": "string",
          "name": "_name",
          "type": "string"
        },
        {
          "internalType": "uint256",
          "name": "_age",
          "type": "uint256"
        },
        {
          "internalType": "string",
          "name": "_city",
          "type": "string"
        },
        {
          "internalType": "string",
          "name": "_HKID",
          "type": "string"
        },
        {
          "internalType": "string",
          "name": "_email",
          "type": "string"
        }
      ],
      "name": "registerBuyer",
      "outputs": [],
      "payable": false,
      "stateMutability": "nonpayable",
      "type": "function"
    },
    {
      "constant": false,
      "inputs": [
        {
          "internalType": "string",
          "name": "_name",
          "type": "string"
        },
        {
          "internalType": "uint256",
          "name": "_age",
          "type": "uint256"
        },
        {
          "internalType": "string",
          "name": "_city",
          "type": "string"
        },
        {
          "internalType": "string",
          "name": "_email",
          "type": "string"
        },
        {
          "internalType": "string",
          "name": "_HKID",
          "type": "string"
        }
      ],
      "name": "updateBuyer",
      "outputs": [],
      "payable": false,
      "stateMutability": "nonpayable",
      "type": "function"
    },
    {
      "constant": true,
      "inputs": [],
      "name": "getBuyer",
      "outputs": [
        {
          "internalType": "address[]",
          "name": "",
          "type": "address[]"
        }
      ],
      "payable": false,
      "stateMutability": "view",
      "type": "function"
    },
    {
      "constant": true,
      "inputs": [
        {
          "internalType": "address",
          "name": "i",
          "type": "address"
        }
      ],
      "name": "getBuyerDetails",
      "outputs": [
        {
          "internalType": "string",
          "name": "",
          "type": "string"
        },
        {
          "internalType": "string",
          "name": "",
          "type": "string"
        },
        {
          "internalType": "string",
          "name": "",
          "type": "string"
        },
        {
          "internalType": "uint256",
          "name": "",
          "type": "uint256"
        },
        {
          "internalType": "string",
          "name": "",
          "type": "string"
        }
      ],
      "payable": false,
      "stateMutability": "view",
      "type": "function"
    },
    {
      "constant": false,
      "inputs": [
        {
          "internalType": "address",
          "name": "_sellerId",
          "type": "address"
        },
        {
          "internalType": "uint256",
          "name": "_landId",
          "type": "uint256"
        }
      ],
      "name": "requestLand",
      "outputs": [],
      "payable": false,
      "stateMutability": "nonpayable",
      "type": "function"
    },
    {
      "constant": false,
      "inputs": [
        {
          "internalType": "uint256",
          "name": "_reqId",
          "type": "uint256"
        }
      ],
      "name": "approveSale",
      "outputs": [],
      "payable": false,
      "stateMutability": "nonpayable",
      "type": "function"
    },
    {
      "constant": true,
      "inputs": [
        {
          "internalType": "uint256",
          "name": "i",
          "type": "uint256"
        }
      ],
      "name": "getRequestDetails",
      "outputs": [
        {
          "internalType": "address",
          "name": "",
          "type": "address"
        },
        {
          "internalType": "address",
          "name": "",
          "type": "address"
        },
        {
          "internalType": "uint256",
          "name": "",
          "type": "uint256"
        },
        {
          "internalType": "bool",
          "name": "",
          "type": "bool"
        }
      ],
      "payable": false,
      "stateMutability": "view",
      "type": "function"
    },
    {
      "constant": true,
      "inputs": [
        {
          "internalType": "uint256",
          "name": "_landId",
          "type": "uint256"
        }
      ],
      "name": "isLandApproved",
      "outputs": [
        {
          "internalType": "bool",
          "name": "",
          "type": "bool"
        }
      ],
      "payable": false,
      "stateMutability": "view",
      "type": "function"
    },
    {
      "constant": true,
      "inputs": [
        {
          "internalType": "uint256",
          "name": "_reqId",
          "type": "uint256"
        }
      ],
      "name": "isSaleApproved",
      "outputs": [
        {
          "internalType": "bool",
          "name": "",
          "type": "bool"
        }
      ],
      "payable": false,
      "stateMutability": "view",
      "type": "function"
    },
    {
      "constant": true,
      "inputs": [
        {
          "internalType": "uint256",
          "name": "_id",
          "type": "uint256"
        }
      ],
      "name": "isRequested",
      "outputs": [
        {
          "internalType": "bool",
          "name": "",
          "type": "bool"
        }
      ],
      "payable": false,
      "stateMutability": "view",
      "type": "function"
    },
    {
      "constant": true,
      "inputs": [
        {
          "internalType": "uint256",
          "name": "_id",
          "type": "uint256"
        }
      ],
      "name": "isApproved",
      "outputs": [
        {
          "internalType": "bool",
          "name": "",
          "type": "bool"
        }
      ],
      "payable": false,
      "stateMutability": "view",
      "type": "function"
    },
    {
      "constant": false,
      "inputs": [
        {
          "internalType": "uint256",
          "name": "_reqId",
          "type": "uint256"
        }
      ],
      "name": "approveRequest",
      "outputs": [],
      "payable": false,
      "stateMutability": "nonpayable",
      "type": "function"
    },
    {
      "constant": true,
      "inputs": [
        {
          "internalType": "uint256",
          "name": "_landId",
          "type": "uint256"
        }
      ],
      "name": "isPaid",
      "outputs": [
        {
          "internalType": "bool",
          "name": "",
          "type": "bool"
        }
      ],
      "payable": false,
      "stateMutability": "view",
      "type": "function"
    },
    {
      "constant": false,
      "inputs": [
        {
          "internalType": "address payable",
          "name": "_seller",
          "type": "address"
        },
        {
          "internalType": "uint256",
          "name": "_landId",
          "type": "uint256"
        }
      ],
      "name": "payment",
      "outputs": [],
      "payable": true,
      "stateMutability": "payable",
      "type": "function"
    }
  ],
  "bytecode": "0x608060405234801561001057600080fd5b50336000806101000a81548173ffffffffffffffffffffffffffffffffffffffff021916908373ffffffffffffffffffffffffffffffffffffffff1602179055506158ac80620000616000396000f3fe6080604052600436106103355760003560e01c80639ae9711e116101ab578063dbd0e1b6116100f7578063f0d3a9df11610095578063f3f0c2181161006f578063f3f0c21814610dca578063f58f85b514610df3578063fbfa4b7f14610e30578063fe0cb7dc14610e5b57610335565b8063f0d3a9df14610d22578063f2aa821814610d4d578063f34d4c6314610d8a57610335565b8063e261f1e5116100d1578063e261f1e514610c27578063e41de57e14610c6b578063e757223014610ca8578063ee95feaf14610ce557610335565b8063dbd0e1b614610b91578063dd9d122d14610bbc578063dec091ad14610be757610335565b8063b3c8fe8511610164578063cd392a831161013e578063cd392a8314610ab1578063cee26ed514610aee578063d713065114610b2b578063d7d1bbdb14610b6857610335565b8063b3c8fe8514610a0a578063ba49a08c14610a49578063c3c5a54714610a7457610335565b80639ae9711e146108ba5780639d7167ba146108e55780639dc1bfa91461090e578063a47d4c021461094b578063ab51707414610988578063b0a5dcd3146109ca57610335565b80634469e3621161028557806368cfe6ee116102235780637d7bc3fb116101fd5780637d7bc3fb146107ec57806389d21354146108155780638c0f74bf146108525780639a967d0c1461088f57610335565b806368cfe6ee146107315780636fbe42d3146107725780637910867b146107af57610335565b8063601e7c341161025f578063601e7c3414610670578063603daf9a146106ad5780636490c7a8146106d857806367a09c231461071557610335565b80634469e362146105e15780634daa9dae1461060a5780635da20ac61461064757610335565b80631869a38b116102f257806322776478116102cc57806322776478146105135780632a55feec146105505780633410452a1461058d57806338c887b2146105b857610335565b80631869a38b1461046e5780631a07f76e146104ab5780631c9afd0f146104e857610335565b8063025493f41461033a578063059b13431461037757806307d56ac0146103a057806314a72feb146103dd578063155fec721461040657806316d9d66614610443575b600080fd5b34801561034657600080fd5b50610361600480360361035c9190810190614a0d565b610e9f565b60405161036e91906151dc565b60405180910390f35b34801561038357600080fd5b5061039e60048036036103999190810190614936565b610ec9565b005b3480156103ac57600080fd5b506103c760048036036103c29190810190614a0d565b6111d0565b6040516103d491906151f7565b60405180910390f35b3480156103e957600080fd5b5061040460048036036103ff9190810190614a0d565b611288565b005b34801561041257600080fd5b5061042d60048036036104289190810190614a0d565b611526565b60405161043a91906151dc565b60405180910390f35b34801561044f57600080fd5b50610458611561565b60405161046591906154cd565b60405180910390f35b34801561047a57600080fd5b5061049560048036036104909190810190614a0d565b61156b565b6040516104a2919061506f565b60405180910390f35b3480156104b757600080fd5b506104d260048036036104cd9190810190614a0d565b6115a8565b6040516104df91906151dc565b60405180910390f35b3480156104f457600080fd5b506104fd6115c8565b60405161050a91906154cd565b60405180910390f35b34801561051f57600080fd5b5061053a60048036036105359190810190614a0d565b6115ce565b60405161054791906151f7565b60405180910390f35b34801561055c57600080fd5b50610577600480360361057291908101906146e8565b611686565b60405161058491906151dc565b60405180910390f35b34801561059957600080fd5b506105a26116e9565b6040516105af91906154cd565b60405180910390f35b3480156105c457600080fd5b506105df60048036036105da9190810190614a0d565b6116f3565b005b3480156105ed57600080fd5b50610608600480360361060391908101906148b7565b61183f565b005b34801561061657600080fd5b50610631600480360361062c9190810190614a0d565b611af9565b60405161063e91906151dc565b60405180910390f35b34801561065357600080fd5b5061066e60048036036106699190810190614936565b611b19565b005b34801561067c57600080fd5b50610697600480360361069291908101906146e8565b611db2565b6040516106a491906151dc565b60405180910390f35b3480156106b957600080fd5b506106c2611dd2565b6040516106cf91906151ba565b60405180910390f35b3480156106e457600080fd5b506106ff60048036036106fa9190810190614a0d565b611e60565b60405161070c91906151f7565b60405180910390f35b61072f600480360361072a9190810190614711565b611f18565b005b34801561073d57600080fd5b50610758600480360361075391908101906146e8565b6123e9565b604051610769959493929190615219565b60405180910390f35b34801561077e57600080fd5b5061079960048036036107949190810190614a0d565b6127c0565b6040516107a691906151dc565b60405180910390f35b3480156107bb57600080fd5b506107d660048036036107d19190810190614a0d565b6127e0565b6040516107e391906151dc565b60405180910390f35b3480156107f857600080fd5b50610813600480360361080e9190810190614789565b61281b565b005b34801561082157600080fd5b5061083c60048036036108379190810190614a0d565b612b89565b60405161084991906151dc565b60405180910390f35b34801561085e57600080fd5b5061087960048036036108749190810190614a0d565b612ba9565b60405161088691906151dc565b60405180910390f35b34801561089b57600080fd5b506108a4612bd3565b6040516108b1919061506f565b60405180910390f35b3480156108c657600080fd5b506108cf612bf8565b6040516108dc91906154cd565b60405180910390f35b3480156108f157600080fd5b5061090c600480360361090791908101906148b7565b612bfe565b005b34801561091a57600080fd5b5061093560048036036109309190810190614a0d565b612de7565b604051610942919061506f565b60405180910390f35b34801561095757600080fd5b50610972600480360361096d91908101906146e8565b612e1a565b60405161097f91906151dc565b60405180910390f35b34801561099457600080fd5b506109af60048036036109aa91908101906146e8565b612e3a565b6040516109c19695949392919061513d565b60405180910390f35b3480156109d657600080fd5b506109f160048036036109ec9190810190614a0d565b6130f6565b604051610a0194939291906154e8565b60405180910390f35b348015610a1657600080fd5b50610a316004803603610a2c91908101906146e8565b613166565b604051610a4093929190615288565b60405180910390f35b348015610a5557600080fd5b50610a5e613378565b604051610a6b91906154cd565b60405180910390f35b348015610a8057600080fd5b50610a9b6004803603610a9691908101906146e8565b61337e565b604051610aa891906151dc565b60405180910390f35b348015610abd57600080fd5b50610ad86004803603610ad39190810190614a0d565b6133e1565b604051610ae591906151dc565b60405180910390f35b348015610afa57600080fd5b50610b156004803603610b109190810190614a0d565b613418565b604051610b22919061506f565b60405180910390f35b348015610b3757600080fd5b50610b526004803603610b4d9190810190614a0d565b613454565b604051610b5f91906151f7565b60405180910390f35b348015610b7457600080fd5b50610b8f6004803603610b8a9190810190614a0d565b61350c565b005b348015610b9d57600080fd5b50610ba661354d565b604051610bb391906151ba565b60405180910390f35b348015610bc857600080fd5b50610bd16135db565b604051610bde91906154cd565b60405180910390f35b348015610bf357600080fd5b50610c0e6004803603610c0991908101906146e8565b6135e5565b604051610c1e94939291906150ea565b60405180910390f35b348015610c3357600080fd5b50610c4e6004803603610c499190810190614a0d565b613765565b604051610c629897969594939291906155d5565b60405180910390f35b348015610c7757600080fd5b50610c926004803603610c8d9190810190614a0d565b613b3d565b604051610c9f91906151dc565b60405180910390f35b348015610cb457600080fd5b50610ccf6004803603610cca9190810190614a0d565b613b5d565b604051610cdc91906154cd565b60405180910390f35b348015610cf157600080fd5b50610d0c6004803603610d0791908101906146e8565b613b7d565b604051610d1991906151dc565b60405180910390f35b348015610d2e57600080fd5b50610d37613be0565b604051610d4491906154cd565b60405180910390f35b348015610d5957600080fd5b50610d746004803603610d6f9190810190614a0d565b613bea565b604051610d81919061506f565b60405180910390f35b348015610d9657600080fd5b50610db16004803603610dac9190810190614a0d565b613c26565b604051610dc194939291906150a5565b60405180910390f35b348015610dd657600080fd5b50610df16004803603610dec919081019061474d565b613ce1565b005b348015610dff57600080fd5b50610e1a6004803603610e1591908101906146e8565b613ea5565b604051610e2791906151dc565b60405180910390f35b348015610e3c57600080fd5b50610e45613ec5565b604051610e5291906154cd565b60405180910390f35b348015610e6757600080fd5b50610e826004803603610e7d9190810190614a0d565b613ecb565b604051610e9698979695949392919061552d565b60405180910390f35b6000600d600083815260200190815260200160002060009054906101000a900460ff169050919050565b600660003373ffffffffffffffffffffffffffffffffffffffff1673ffffffffffffffffffffffffffffffffffffffff16815260200190815260200160002060009054906101000a900460ff1615610f2057600080fd5b6001600660003373ffffffffffffffffffffffffffffffffffffffff1673ffffffffffffffffffffffffffffffffffffffff16815260200190815260200160002060006101000a81548160ff0219169083151502179055506001600860003373ffffffffffffffffffffffffffffffffffffffff1673ffffffffffffffffffffffffffffffffffffffff16815260200190815260200160002060006101000a81548160ff0219169083151502179055506013600081548092919060010191905055506040518060c001604052803373ffffffffffffffffffffffffffffffffffffffff16815260200186815260200185815260200184815260200183815260200182815250600360003373ffffffffffffffffffffffffffffffffffffffff1673ffffffffffffffffffffffffffffffffffffffff16815260200190815260200160002060008201518160000160006101000a81548173ffffffffffffffffffffffffffffffffffffffff021916908373ffffffffffffffffffffffffffffffffffffffff16021790555060208201518160010190805190602001906110c79291906144eb565b506040820151816002015560608201518160030190805190602001906110ee9291906144eb565b50608082015181600401908051906020019061110b9291906144eb565b5060a08201518160050190805190602001906111289291906144eb565b5090505060103390806001815401808255809150509060018203906000526020600020016000909192909190916101000a81548173ffffffffffffffffffffffffffffffffffffffff021916908373ffffffffffffffffffffffffffffffffffffffff160217905550507f478f5152d8fc568db3f8de9fb402fd9d98a1a7541ecfe434e59cf574fbfc5524336040516111c1919061508a565b60405180910390a15050505050565b6060600160008381526020019081526020016000206007018054600181600116156101000203166002900480601f01602080910402602001604051908101604052809291908181526020018280546001816001161561010002031660029004801561127c5780601f106112515761010080835404028352916020019161127c565b820191906000526020600020905b81548152906001019060200180831161125f57829003601f168201915b50505050509050919050565b6000809054906101000a900473ffffffffffffffffffffffffffffffffffffffff1673ffffffffffffffffffffffffffffffffffffffff163373ffffffffffffffffffffffffffffffffffffffff1614611317576040517f08c379a000000000000000000000000000000000000000000000000000000000815260040161130e9061538d565b60405180910390fd5b600b60006004600084815260200190815260200160002060030154815260200190815260200160002060009054906101000a900460ff1661138d576040517f08c379a00000000000000000000000000000000000000000000000000000000081526004016113849061544d565b60405180910390fd5b600e600082815260200190815260200160002060009054906101000a900460ff16156113ee576040517f08c379a00000000000000000000000000000000000000000000000000000000081526004016113e59061536d565b60405180910390fd5b6001600a600083815260200190815260200160002060006101000a81548160ff0219169083151502179055506001600e600083815260200190815260200160002060006101000a81548160ff0219169083151502179055506004600082815260200190815260200160002060020160009054906101000a900473ffffffffffffffffffffffffffffffffffffffff1673ffffffffffffffffffffffffffffffffffffffff166004600083815260200190815260200160002060010160009054906101000a900473ffffffffffffffffffffffffffffffffffffffff1673ffffffffffffffffffffffffffffffffffffffff1660046000848152602001908152602001600020600301547fc11ba352d6e34762f41998d1695f70663495b9319f6d567b1845168afae10c8560405160405180910390a450565b6000600b600083815260200190815260200160002060009054906101000a900460ff1615611557576001905061155c565b600090505b919050565b6000601154905090565b60006009600083815260200190815260200160002060009054906101000a900473ffffffffffffffffffffffffffffffffffffffff169050919050565b600c6020528060005260406000206000915054906101000a900460ff1681565b60115481565b6060600160008381526020019081526020016000206004018054600181600116156101000203166002900480601f01602080910402602001604051908101604052809291908181526020018280546001816001161561010002031660029004801561167a5780601f1061164f5761010080835404028352916020019161167a565b820191906000526020600020905b81548152906001019060200180831161165d57829003601f168201915b50505050509050919050565b6000600860008373ffffffffffffffffffffffffffffffffffffffff1673ffffffffffffffffffffffffffffffffffffffff16815260200190815260200160002060009054906101000a900460ff16156116e357600190506116e4565b5b919050565b6000601454905090565b6000809054906101000a900473ffffffffffffffffffffffffffffffffffffffff1673ffffffffffffffffffffffffffffffffffffffff163373ffffffffffffffffffffffffffffffffffffffff1614611782576040517f08c379a00000000000000000000000000000000000000000000000000000000081526004016117799061538d565b60405180910390fd5b600d600082815260200190815260200160002060009054906101000a900460ff16156117e3576040517f08c379a00000000000000000000000000000000000000000000000000000000081526004016117da9061530d565b60405180910390fd5b6001600d600083815260200190815260200160002060006101000a81548160ff021916908315150217905550807f91ec7a228989c78928a20eb7fb3443491bc7f1432d0d343373e7175fdc99d7e760405160405180910390a250565b600760003373ffffffffffffffffffffffffffffffffffffffff1673ffffffffffffffffffffffffffffffffffffffff16815260200190815260200160002060009054906101000a900460ff1661190957601260008154809291906001019190505550600f3390806001815401808255809150509060018203906000526020600020016000909192909190916101000a81548173ffffffffffffffffffffffffffffffffffffffff021916908373ffffffffffffffffffffffffffffffffffffffff160217905550505b6001600660003373ffffffffffffffffffffffffffffffffffffffff1673ffffffffffffffffffffffffffffffffffffffff16815260200190815260200160002060006101000a81548160ff0219169083151502179055506001600760003373ffffffffffffffffffffffffffffffffffffffff1673ffffffffffffffffffffffffffffffffffffffff16815260200190815260200160002060006101000a81548160ff02191690831515021790555060405180608001604052803373ffffffffffffffffffffffffffffffffffffffff16815260200184815260200183815260200182815250600260003373ffffffffffffffffffffffffffffffffffffffff1673ffffffffffffffffffffffffffffffffffffffff16815260200190815260200160002060008201518160000160006101000a81548173ffffffffffffffffffffffffffffffffffffffff021916908373ffffffffffffffffffffffffffffffffffffffff1602179055506020820151816001019080519060200190611a929291906144eb565b50604082015181600201556060820151816003019080519060200190611ab99291906144eb565b509050507f478f5152d8fc568db3f8de9fb402fd9d98a1a7541ecfe434e59cf574fbfc552433604051611aec919061508a565b60405180910390a1505050565b600b6020528060005260406000206000915054906101000a900460ff1681565b600660003373ffffffffffffffffffffffffffffffffffffffff1673ffffffffffffffffffffffffffffffffffffffff16815260200190815260200160002060009054906101000a900460ff168015611bff57503373ffffffffffffffffffffffffffffffffffffffff16600360003373ffffffffffffffffffffffffffffffffffffffff1673ffffffffffffffffffffffffffffffffffffffff16815260200190815260200160002060000160009054906101000a900473ffffffffffffffffffffffffffffffffffffffff1673ffffffffffffffffffffffffffffffffffffffff16145b611c0857600080fd5b84600360003373ffffffffffffffffffffffffffffffffffffffff1673ffffffffffffffffffffffffffffffffffffffff1681526020019081526020016000206001019080519060200190611c5e92919061456b565b5083600360003373ffffffffffffffffffffffffffffffffffffffff1673ffffffffffffffffffffffffffffffffffffffff1681526020019081526020016000206002018190555082600360003373ffffffffffffffffffffffffffffffffffffffff1673ffffffffffffffffffffffffffffffffffffffff1681526020019081526020016000206003019080519060200190611cfc92919061456b565b5080600360003373ffffffffffffffffffffffffffffffffffffffff1673ffffffffffffffffffffffffffffffffffffffff1681526020019081526020016000206004019080519060200190611d5392919061456b565b5081600360003373ffffffffffffffffffffffffffffffffffffffff1673ffffffffffffffffffffffffffffffffffffffff1681526020019081526020016000206005019080519060200190611daa92919061456b565b505050505050565b60076020528060005260406000206000915054906101000a900460ff1681565b60606010805480602002602001604051908101604052809291908181526020018280548015611e5657602002820191906000526020600020905b8160009054906101000a900473ffffffffffffffffffffffffffffffffffffffff1673ffffffffffffffffffffffffffffffffffffffff1681526020019060010190808311611e0c575b5050505050905090565b6060600160008381526020019081526020016000206002018054600181600116156101000203166002900480601f016020809104026020016040519081016040528092919081815260200182805460018160011615610100020316600290048015611f0c5780601f10611ee157610100808354040283529160200191611f0c565b820191906000526020600020905b815481529060010190602001808311611eef57829003601f168201915b50505050509050919050565b8173ffffffffffffffffffffffffffffffffffffffff166009600083815260200190815260200160002060009054906101000a900473ffffffffffffffffffffffffffffffffffffffff1673ffffffffffffffffffffffffffffffffffffffff1614611fb9576040517f08c379a0000000000000000000000000000000000000000000000000000000008152600401611fb0906153ed565b60405180910390fd5b60016000828152602001908152602001600020600601543414612011576040517f08c379a00000000000000000000000000000000000000000000000000000000081526004016120089061534d565b60405180910390fd5b61201a33611686565b612059576040517f08c379a0000000000000000000000000000000000000000000000000000000008152600401612050906153cd565b60405180910390fd5b600d600082815260200190815260200160002060009054906101000a900460ff166120b9576040517f08c379a00000000000000000000000000000000000000000000000000000000081526004016120b09061546d565b60405180910390fd5b60006120c6838333614389565b9050600e600082815260200190815260200160002060009054906101000a900460ff16612128576040517f08c379a000000000000000000000000000000000000000000000000000000000815260040161211f906154ad565b60405180910390fd5b8273ffffffffffffffffffffffffffffffffffffffff166009600084815260200190815260200160002060009054906101000a900473ffffffffffffffffffffffffffffffffffffffff1673ffffffffffffffffffffffffffffffffffffffff16146121c9576040517f08c379a00000000000000000000000000000000000000000000000000000000081526004016121c09061540d565b60405180910390fd5b60016000838152602001908152602001600020600601543414612221576040517f08c379a0000000000000000000000000000000000000000000000000000000008152600401612218906153ad565b60405180910390fd5b61222a33611686565b612269576040517f08c379a0000000000000000000000000000000000000000000000000000000008152600401612260906152ed565b60405180910390fd5b8273ffffffffffffffffffffffffffffffffffffffff166108fc349081150290604051600060405180830381858888f193505050501580156122af573d6000803e3d6000fd5b50336009600084815260200190815260200160002060006101000a81548173ffffffffffffffffffffffffffffffffffffffff021916908373ffffffffffffffffffffffffffffffffffffffff1602179055506001600c600084815260200190815260200160002060006101000a81548160ff0219169083151502179055503373ffffffffffffffffffffffffffffffffffffffff168373ffffffffffffffffffffffffffffffffffffffff16837fb7f273d24b72fa6909da0491bdd1dee4335efbce78ea06a1d843b4d96e28700960405160405180910390a43373ffffffffffffffffffffffffffffffffffffffff168373ffffffffffffffffffffffffffffffffffffffff16837fa3b0b9020f88aba79dc7d52f5e1da8502bcea42c242b02d2144b71b2de7f049560405160405180910390a4505050565b606080606060006060600360008773ffffffffffffffffffffffffffffffffffffffff1673ffffffffffffffffffffffffffffffffffffffff168152602001908152602001600020600101600360008873ffffffffffffffffffffffffffffffffffffffff1673ffffffffffffffffffffffffffffffffffffffff168152602001908152602001600020600301600360008973ffffffffffffffffffffffffffffffffffffffff1673ffffffffffffffffffffffffffffffffffffffff168152602001908152602001600020600501600360008a73ffffffffffffffffffffffffffffffffffffffff1673ffffffffffffffffffffffffffffffffffffffff16815260200190815260200160002060020154600360008b73ffffffffffffffffffffffffffffffffffffffff1673ffffffffffffffffffffffffffffffffffffffff168152602001908152602001600020600401848054600181600116156101000203166002900480601f0160208091040260200160405190810160405280929190818152602001828054600181600116156101000203166002900480156125d25780601f106125a7576101008083540402835291602001916125d2565b820191906000526020600020905b8154815290600101906020018083116125b557829003601f168201915b50505050509450838054600181600116156101000203166002900480601f01602080910402602001604051908101604052809291908181526020018280546001816001161561010002031660029004801561266e5780601f106126435761010080835404028352916020019161266e565b820191906000526020600020905b81548152906001019060200180831161265157829003601f168201915b50505050509350828054600181600116156101000203166002900480601f01602080910402602001604051908101604052809291908181526020018280546001816001161561010002031660029004801561270a5780601f106126df5761010080835404028352916020019161270a565b820191906000526020600020905b8154815290600101906020018083116126ed57829003601f168201915b50505050509250808054600181600116156101000203166002900480601f0160208091040260200160405190810160405280929190818152602001828054600181600116156101000203166002900480156127a65780601f1061277b576101008083540402835291602001916127a6565b820191906000526020600020905b81548152906001019060200180831161278957829003601f168201915b505050505090509450945094509450945091939590929450565b600e6020528060005260406000206000915054906101000a900460ff1681565b6000600a600083815260200190815260200160002060009054906101000a900460ff16156128115760019050612816565b600090505b919050565b61282433613b7d565b612863576040517f08c379a000000000000000000000000000000000000000000000000000000000815260040161285a9061532d565b60405180910390fd5b6005816040516128739190615058565b908152602001604051809103902060009054906101000a900460ff16156128cf576040517f08c379a00000000000000000000000000000000000000000000000000000000081526004016128c69061542d565b60405180910390fd5b6011600081548092919060010191905055506040518061010001604052806011548152602001888152602001878152602001868152602001858152602001848152602001838152602001828152506001600060115481526020019081526020016000206000820151816000015560208201518160010190805190602001906129589291906144eb565b5060408201518160020190805190602001906129759291906144eb565b5060608201518160030190805190602001906129929291906144eb565b5060808201518160040190805190602001906129af9291906144eb565b5060a08201518160050190805190602001906129cc9291906144eb565b5060c0820151816006015560e08201518160070190805190602001906129f39291906144eb565b509050506000600d6000601154815260200190815260200160002060006101000a81548160ff0219169083151502179055503360096000601154815260200190815260200160002060006101000a81548173ffffffffffffffffffffffffffffffffffffffff021916908373ffffffffffffffffffffffffffffffffffffffff1602179055506001600582604051612a8b9190615058565b908152602001604051809103902060006101000a81548160ff0219169083151502179055506000600a6000601154815260200190815260200160002060006101000a81548160ff0219169083151502179055506000600b6000601154815260200190815260200160002060006101000a81548160ff0219169083151502179055506000600e6000601154815260200190815260200160002060006101000a81548160ff0219169083151502179055503373ffffffffffffffffffffffffffffffffffffffff166011547fe659cd97cac952bd95422fe03dc78e1dfa0a1734b6bed8350eff0c58364d767560405160405180910390a350505050505050565b600a6020528060005260406000206000915054906101000a900460ff1681565b6000600e600083815260200190815260200160002060009054906101000a900460ff169050919050565b6000809054906101000a900473ffffffffffffffffffffffffffffffffffffffff1681565b60125481565b600660003373ffffffffffffffffffffffffffffffffffffffff1673ffffffffffffffffffffffffffffffffffffffff16815260200190815260200160002060009054906101000a900460ff168015612ce457503373ffffffffffffffffffffffffffffffffffffffff16600260003373ffffffffffffffffffffffffffffffffffffffff1673ffffffffffffffffffffffffffffffffffffffff16815260200190815260200160002060000160009054906101000a900473ffffffffffffffffffffffffffffffffffffffff1673ffffffffffffffffffffffffffffffffffffffff16145b612ced57600080fd5b82600260003373ffffffffffffffffffffffffffffffffffffffff1673ffffffffffffffffffffffffffffffffffffffff1681526020019081526020016000206001019080519060200190612d4392919061456b565b5081600260003373ffffffffffffffffffffffffffffffffffffffff1673ffffffffffffffffffffffffffffffffffffffff1681526020019081526020016000206002018190555080600260003373ffffffffffffffffffffffffffffffffffffffff1673ffffffffffffffffffffffffffffffffffffffff1681526020019081526020016000206003019080519060200190612de192919061456b565b50505050565b60096020528060005260406000206000915054906101000a900473ffffffffffffffffffffffffffffffffffffffff1681565b60086020528060005260406000206000915054906101000a900460ff1681565b60036020528060005260406000206000915090508060000160009054906101000a900473ffffffffffffffffffffffffffffffffffffffff1690806001018054600181600116156101000203166002900480601f016020809104026020016040519081016040528092919081815260200182805460018160011615610100020316600290048015612f0c5780601f10612ee157610100808354040283529160200191612f0c565b820191906000526020600020905b815481529060010190602001808311612eef57829003601f168201915b505050505090806002015490806003018054600181600116156101000203166002900480601f016020809104026020016040519081016040528092919081815260200182805460018160011615610100020316600290048015612fb05780601f10612f8557610100808354040283529160200191612fb0565b820191906000526020600020905b815481529060010190602001808311612f9357829003601f168201915b505050505090806004018054600181600116156101000203166002900480601f01602080910402602001604051908101604052809291908181526020018280546001816001161561010002031660029004801561304e5780601f106130235761010080835404028352916020019161304e565b820191906000526020600020905b81548152906001019060200180831161303157829003601f168201915b505050505090806005018054600181600116156101000203166002900480601f0160208091040260200160405190810160405280929190818152602001828054600181600116156101000203166002900480156130ec5780601f106130c1576101008083540402835291602001916130ec565b820191906000526020600020905b8154815290600101906020018083116130cf57829003601f168201915b5050505050905086565b60046020528060005260406000206000915090508060000154908060010160009054906101000a900473ffffffffffffffffffffffffffffffffffffffff16908060020160009054906101000a900473ffffffffffffffffffffffffffffffffffffffff16908060030154905084565b606060006060600260008573ffffffffffffffffffffffffffffffffffffffff1673ffffffffffffffffffffffffffffffffffffffff168152602001908152602001600020600101600260008673ffffffffffffffffffffffffffffffffffffffff1673ffffffffffffffffffffffffffffffffffffffff16815260200190815260200160002060020154600260008773ffffffffffffffffffffffffffffffffffffffff1673ffffffffffffffffffffffffffffffffffffffff168152602001908152602001600020600301828054600181600116156101000203166002900480601f0160208091040260200160405190810160405280929190818152602001828054600181600116156101000203166002900480156132c85780601f1061329d576101008083540402835291602001916132c8565b820191906000526020600020905b8154815290600101906020018083116132ab57829003601f168201915b50505050509250808054600181600116156101000203166002900480601f0160208091040260200160405190810160405280929190818152602001828054600181600116156101000203166002900480156133645780601f1061333957610100808354040283529160200191613364565b820191906000526020600020905b81548152906001019060200180831161334757829003601f168201915b505050505090509250925092509193909250565b60135481565b6000600660008373ffffffffffffffffffffffffffffffffffffffff1673ffffffffffffffffffffffffffffffffffffffff16815260200190815260200160002060009054906101000a900460ff16156133db57600190506133dc565b5b919050565b6000600c600083815260200190815260200160002060009054906101000a900460ff16156134125760019050613413565b5b919050565b600f818154811061342557fe5b906000526020600020016000915054906101000a900473ffffffffffffffffffffffffffffffffffffffff1681565b6060600160008381526020019081526020016000206003018054600181600116156101000203166002900480601f0160208091040260200160405190810160405280929190818152602001828054600181600116156101000203166002900480156135005780601f106134d557610100808354040283529160200191613500565b820191906000526020600020905b8154815290600101906020018083116134e357829003601f168201915b50505050509050919050565b61351533613b7d565b61351e57600080fd5b6001600a600083815260200190815260200160002060006101000a81548160ff02191690831515021790555050565b6060600f8054806020026020016040519081016040528092919081815260200182805480156135d157602002820191906000526020600020905b8160009054906101000a900473ffffffffffffffffffffffffffffffffffffffff1673ffffffffffffffffffffffffffffffffffffffff1681526020019060010190808311613587575b5050505050905090565b6000601254905090565b60026020528060005260406000206000915090508060000160009054906101000a900473ffffffffffffffffffffffffffffffffffffffff1690806001018054600181600116156101000203166002900480601f0160208091040260200160405190810160405280929190818152602001828054600181600116156101000203166002900480156136b75780601f1061368c576101008083540402835291602001916136b7565b820191906000526020600020905b81548152906001019060200180831161369a57829003601f168201915b505050505090806002015490806003018054600181600116156101000203166002900480601f01602080910402602001604051908101604052809291908181526020018280546001816001161561010002031660029004801561375b5780601f106137305761010080835404028352916020019161375b565b820191906000526020600020905b81548152906001019060200180831161373e57829003601f168201915b5050505050905084565b6001602052806000526040600020600091509050806000015490806001018054600181600116156101000203166002900480601f0160208091040260200160405190810160405280929190818152602001828054600181600116156101000203166002900480156138175780601f106137ec57610100808354040283529160200191613817565b820191906000526020600020905b8154815290600101906020018083116137fa57829003601f168201915b505050505090806002018054600181600116156101000203166002900480601f0160208091040260200160405190810160405280929190818152602001828054600181600116156101000203166002900480156138b55780601f1061388a576101008083540402835291602001916138b5565b820191906000526020600020905b81548152906001019060200180831161389857829003601f168201915b505050505090806003018054600181600116156101000203166002900480601f0160208091040260200160405190810160405280929190818152602001828054600181600116156101000203166002900480156139535780601f1061392857610100808354040283529160200191613953565b820191906000526020600020905b81548152906001019060200180831161393657829003601f168201915b505050505090806004018054600181600116156101000203166002900480601f0160208091040260200160405190810160405280929190818152602001828054600181600116156101000203166002900480156139f15780601f106139c6576101008083540402835291602001916139f1565b820191906000526020600020905b8154815290600101906020018083116139d457829003601f168201915b505050505090806005018054600181600116156101000203166002900480601f016020809104026020016040519081016040528092919081815260200182805460018160011615610100020316600290048015613a8f5780601f10613a6457610100808354040283529160200191613a8f565b820191906000526020600020905b815481529060010190602001808311613a7257829003601f168201915b505050505090806006015490806007018054600181600116156101000203166002900480601f016020809104026020016040519081016040528092919081815260200182805460018160011615610100020316600290048015613b335780601f10613b0857610100808354040283529160200191613b33565b820191906000526020600020905b815481529060010190602001808311613b1657829003601f168201915b5050505050905088565b600d6020528060005260406000206000915054906101000a900460ff1681565b600060016000838152602001908152602001600020600601549050919050565b6000600760008373ffffffffffffffffffffffffffffffffffffffff1673ffffffffffffffffffffffffffffffffffffffff16815260200190815260200160002060009054906101000a900460ff1615613bda5760019050613bdb565b5b919050565b6000601354905090565b60108181548110613bf757fe5b906000526020600020016000915054906101000a900473ffffffffffffffffffffffffffffffffffffffff1681565b6000806000806004600086815260200190815260200160002060010160009054906101000a900473ffffffffffffffffffffffffffffffffffffffff166004600087815260200190815260200160002060020160009054906101000a900473ffffffffffffffffffffffffffffffffffffffff166004600088815260200190815260200160002060030154600a600089815260200190815260200160002060009054906101000a900460ff1693509350935093509193509193565b613cea33611686565b613cf357600080fd5b601460008154809291906001019190505550604051806080016040528060145481526020018373ffffffffffffffffffffffffffffffffffffffff1681526020013373ffffffffffffffffffffffffffffffffffffffff168152602001828152506004600060145481526020019081526020016000206000820151816000015560208201518160010160006101000a81548173ffffffffffffffffffffffffffffffffffffffff021916908373ffffffffffffffffffffffffffffffffffffffff16021790555060408201518160020160006101000a81548173ffffffffffffffffffffffffffffffffffffffff021916908373ffffffffffffffffffffffffffffffffffffffff160217905550606082015181600301559050506000600a6000601454815260200190815260200160002060006101000a81548160ff0219169083151502179055506001600b6000601454815260200190815260200160002060006101000a81548160ff0219169083151502179055507fc67eb70629da758128cec22f7e36ad0676066ad4df9b66e8ba58a30c1ab4075b82604051613e99919061506f565b60405180910390a15050565b60066020528060005260406000206000915054906101000a900460ff1681565b60145481565b6000606080606080606060006060600089118015613eeb57506011548911155b613f2a576040517f08c379a0000000000000000000000000000000000000000000000000000000008152600401613f219061548d565b60405180910390fd5b613f326145eb565b600160008b81526020019081526020016000206040518061010001604052908160008201548152602001600182018054600181600116156101000203166002900480601f016020809104026020016040519081016040528092919081815260200182805460018160011615610100020316600290048015613ff45780601f10613fc957610100808354040283529160200191613ff4565b820191906000526020600020905b815481529060010190602001808311613fd757829003601f168201915b50505050508152602001600282018054600181600116156101000203166002900480601f0160208091040260200160405190810160405280929190818152602001828054600181600116156101000203166002900480156140965780601f1061406b57610100808354040283529160200191614096565b820191906000526020600020905b81548152906001019060200180831161407957829003601f168201915b50505050508152602001600382018054600181600116156101000203166002900480601f0160208091040260200160405190810160405280929190818152602001828054600181600116156101000203166002900480156141385780601f1061410d57610100808354040283529160200191614138565b820191906000526020600020905b81548152906001019060200180831161411b57829003601f168201915b50505050508152602001600482018054600181600116156101000203166002900480601f0160208091040260200160405190810160405280929190818152602001828054600181600116156101000203166002900480156141da5780601f106141af576101008083540402835291602001916141da565b820191906000526020600020905b8154815290600101906020018083116141bd57829003601f168201915b50505050508152602001600582018054600181600116156101000203166002900480601f01602080910402602001604051908101604052809291908181526020018280546001816001161561010002031660029004801561427c5780601f106142515761010080835404028352916020019161427c565b820191906000526020600020905b81548152906001019060200180831161425f57829003601f168201915b5050505050815260200160068201548152602001600782018054600181600116156101000203166002900480601f0160208091040260200160405190810160405280929190818152602001828054600181600116156101000203166002900480156143285780601f106142fd57610100808354040283529160200191614328565b820191906000526020600020905b81548152906001019060200180831161430b57829003601f168201915b5050505050815250509050806000015181602001518260400151836060015184608001518560a001518660c001518760e001518696508595508494508393508292508090509850985098509850985098509850985050919395975091939597565b600080600190505b60145481116144a8578473ffffffffffffffffffffffffffffffffffffffff166004600083815260200190815260200160002060010160009054906101000a900473ffffffffffffffffffffffffffffffffffffffff1673ffffffffffffffffffffffffffffffffffffffff1614801561446c57508273ffffffffffffffffffffffffffffffffffffffff166004600083815260200190815260200160002060020160009054906101000a900473ffffffffffffffffffffffffffffffffffffffff1673ffffffffffffffffffffffffffffffffffffffff16145b801561448d5750836004600083815260200190815260200160002060030154145b1561449b57809150506144e4565b8080600101915050614391565b506040517f08c379a00000000000000000000000000000000000000000000000000000000081526004016144db906152cd565b60405180910390fd5b9392505050565b828054600181600116156101000203166002900490600052602060002090601f016020900481019282601f1061452c57805160ff191683800117855561455a565b8280016001018555821561455a579182015b8281111561455957825182559160200191906001019061453e565b5b5090506145679190614630565b5090565b828054600181600116156101000203166002900490600052602060002090601f016020900481019282601f106145ac57805160ff19168380011785556145da565b828001600101855582156145da579182015b828111156145d95782518255916020019190600101906145be565b5b5090506145e79190614630565b5090565b60405180610100016040528060008152602001606081526020016060815260200160608152602001606081526020016060815260200160008152602001606081525090565b61465291905b8082111561464e576000816000905550600101614636565b5090565b90565b60008135905061466481615824565b92915050565b6000813590506146798161583b565b92915050565b600082601f83011261469057600080fd5b81356146a361469e826156aa565b61567d565b915080825260208301602083018583830111156146bf57600080fd5b6146ca8382846157d1565b50505092915050565b6000813590506146e281615852565b92915050565b6000602082840312156146fa57600080fd5b600061470884828501614655565b91505092915050565b6000806040838503121561472457600080fd5b60006147328582860161466a565b9250506020614743858286016146d3565b9150509250929050565b6000806040838503121561476057600080fd5b600061476e85828601614655565b925050602061477f858286016146d3565b9150509250929050565b600080600080600080600060e0888a0312156147a457600080fd5b600088013567ffffffffffffffff8111156147be57600080fd5b6147ca8a828b0161467f565b975050602088013567ffffffffffffffff8111156147e757600080fd5b6147f38a828b0161467f565b965050604088013567ffffffffffffffff81111561481057600080fd5b61481c8a828b0161467f565b955050606088013567ffffffffffffffff81111561483957600080fd5b6148458a828b0161467f565b945050608088013567ffffffffffffffff81111561486257600080fd5b61486e8a828b0161467f565b93505060a061487f8a828b016146d3565b92505060c088013567ffffffffffffffff81111561489c57600080fd5b6148a88a828b0161467f565b91505092959891949750929550565b6000806000606084860312156148cc57600080fd5b600084013567ffffffffffffffff8111156148e657600080fd5b6148f28682870161467f565b9350506020614903868287016146d3565b925050604084013567ffffffffffffffff81111561492057600080fd5b61492c8682870161467f565b9150509250925092565b600080600080600060a0868803121561494e57600080fd5b600086013567ffffffffffffffff81111561496857600080fd5b6149748882890161467f565b9550506020614985888289016146d3565b945050604086013567ffffffffffffffff8111156149a257600080fd5b6149ae8882890161467f565b935050606086013567ffffffffffffffff8111156149cb57600080fd5b6149d78882890161467f565b925050608086013567ffffffffffffffff8111156149f457600080fd5b614a008882890161467f565b9150509295509295909350565b600060208284031215614a1f57600080fd5b6000614a2d848285016146d3565b91505092915050565b6000614a428383614a5d565b60208301905092915050565b614a578161579b565b82525050565b614a6681615741565b82525050565b614a7581615741565b82525050565b6000614a86826156e6565b614a908185615714565b9350614a9b836156d6565b8060005b83811015614acc578151614ab38882614a36565b9750614abe83615707565b925050600181019050614a9f565b5085935050505092915050565b614ae281615765565b82525050565b6000614af3826156fc565b614afd8185615725565b9350614b0d8185602086016157e0565b614b1681615813565b840191505092915050565b6000614b2c826156fc565b614b368185615736565b9350614b468185602086016157e0565b80840191505092915050565b6000614b5d826156f1565b614b678185615725565b9350614b778185602086016157e0565b614b8081615813565b840191505092915050565b6000614b98601183615725565b91507f52657175657374206e6f7420666f756e640000000000000000000000000000006000830152602082019050919050565b6000614bd8602983615725565b91507f4f6e6c792072656769737465726564206275796572732063616e206d616b652060008301527f7061796d656e74732e00000000000000000000000000000000000000000000006020830152604082019050919050565b6000614c3e601e83615725565b91507f4c616e642068617320616c7265616479206265656e20617070726f76656400006000830152602082019050919050565b6000614c7e601b83615725565b91507f4f6e6c792073656c6c6572732063616e20616464206c616e64732e00000000006000830152602082019050919050565b6000614cbe601883615725565b91507f496e636f7272656374207061796d656e7420616d6f756e7400000000000000006000830152602082019050919050565b6000614cfe601e83615725565b91507f53616c652068617320616c7265616479206265656e20617070726f76656400006000830152602082019050919050565b6000614d3e602083615725565b91507f43616c6c6572206973206e6f7420746865206c616e6420696e73706563746f726000830152602082019050919050565b6000614d7e601983615725565b91507f496e636f7272656374207061796d656e7420616d6f756e742e000000000000006000830152602082019050919050565b6000614dbe602883615725565b91507f4f6e6c792072656769737465726564206275796572732063616e206d616b652060008301527f7061796d656e74730000000000000000000000000000000000000000000000006020830152604082019050919050565b6000614e24601c83615725565b91507f53656c6c657220646f6573206e6f74206f776e20746865206c616e64000000006000830152602082019050919050565b6000614e64601d83615725565b91507f53656c6c657220646f6573206e6f74206f776e20746865206c616e642e0000006000830152602082019050919050565b6000614ea4602283615725565b91507f50726f706572747920494420697320616c72656164792072656769737465726560008301527f642e0000000000000000000000000000000000000000000000000000000000006020830152604082019050919050565b6000614f0a601b83615725565b91507f4c616e6420686173206e6f74206265656e2072657175657374656400000000006000830152602082019050919050565b6000614f4a602b83615725565b91507f4c616e6420686173206e6f74206265656e20617070726f76656420627920746860008301527f6520696e73706563746f720000000000000000000000000000000000000000006020830152604082019050919050565b6000614fb0601883615725565b91507f4c616e64204944206973206f7574206f6620626f756e647300000000000000006000830152602082019050919050565b6000614ff0602a83615725565b91507f53616c6520686173206e6f74206265656e617070726f7665642062792074686560008301527f20696e73706563746f72000000000000000000000000000000000000000000006020830152604082019050919050565b61505281615791565b82525050565b60006150648284614b21565b915081905092915050565b60006020820190506150846000830184614a6c565b92915050565b600060208201905061509f6000830184614a4e565b92915050565b60006080820190506150ba6000830187614a6c565b6150c76020830186614a6c565b6150d46040830185615049565b6150e16060830184614ad9565b95945050505050565b60006080820190506150ff6000830187614a6c565b81810360208301526151118186614b52565b90506151206040830185615049565b81810360608301526151328184614b52565b905095945050505050565b600060c0820190506151526000830189614a6c565b81810360208301526151648188614b52565b90506151736040830187615049565b81810360608301526151858186614b52565b905081810360808301526151998185614b52565b905081810360a08301526151ad8184614b52565b9050979650505050505050565b600060208201905081810360008301526151d48184614a7b565b905092915050565b60006020820190506151f16000830184614ad9565b92915050565b600060208201905081810360008301526152118184614ae8565b905092915050565b600060a08201905081810360008301526152338188614ae8565b905081810360208301526152478187614ae8565b9050818103604083015261525b8186614ae8565b905061526a6060830185615049565b818103608083015261527c8184614ae8565b90509695505050505050565b600060608201905081810360008301526152a28186614ae8565b90506152b16020830185615049565b81810360408301526152c38184614ae8565b9050949350505050565b600060208201905081810360008301526152e681614b8b565b9050919050565b6000602082019050818103600083015261530681614bcb565b9050919050565b6000602082019050818103600083015261532681614c31565b9050919050565b6000602082019050818103600083015261534681614c71565b9050919050565b6000602082019050818103600083015261536681614cb1565b9050919050565b6000602082019050818103600083015261538681614cf1565b9050919050565b600060208201905081810360008301526153a681614d31565b9050919050565b600060208201905081810360008301526153c681614d71565b9050919050565b600060208201905081810360008301526153e681614db1565b9050919050565b6000602082019050818103600083015261540681614e17565b9050919050565b6000602082019050818103600083015261542681614e57565b9050919050565b6000602082019050818103600083015261544681614e97565b9050919050565b6000602082019050818103600083015261546681614efd565b9050919050565b6000602082019050818103600083015261548681614f3d565b9050919050565b600060208201905081810360008301526154a681614fa3565b9050919050565b600060208201905081810360008301526154c681614fe3565b9050919050565b60006020820190506154e26000830184615049565b92915050565b60006080820190506154fd6000830187615049565b61550a6020830186614a6c565b6155176040830185614a6c565b6155246060830184615049565b95945050505050565b600061010082019050615543600083018b615049565b8181036020830152615555818a614ae8565b905081810360408301526155698189614ae8565b9050818103606083015261557d8188614ae8565b905081810360808301526155918187614ae8565b905081810360a08301526155a58186614ae8565b90506155b460c0830185615049565b81810360e08301526155c68184614ae8565b90509998505050505050505050565b6000610100820190506155eb600083018b615049565b81810360208301526155fd818a614b52565b905081810360408301526156118189614b52565b905081810360608301526156258188614b52565b905081810360808301526156398187614b52565b905081810360a083015261564d8186614b52565b905061565c60c0830185615049565b81810360e083015261566e8184614b52565b90509998505050505050505050565b6000604051905081810181811067ffffffffffffffff821117156156a057600080fd5b8060405250919050565b600067ffffffffffffffff8211156156c157600080fd5b601f19601f8301169050602081019050919050565b6000819050602082019050919050565b600081519050919050565b600081519050919050565b600081519050919050565b6000602082019050919050565b600082825260208201905092915050565b600082825260208201905092915050565b600081905092915050565b600061574c82615771565b9050919050565b600061575e82615771565b9050919050565b60008115159050919050565b600073ffffffffffffffffffffffffffffffffffffffff82169050919050565b6000819050919050565b60006157a6826157ad565b9050919050565b60006157b8826157bf565b9050919050565b60006157ca82615771565b9050919050565b82818337600083830152505050565b60005b838110156157fe5780820151818401526020810190506157e3565b8381111561580d576000848401525b50505050565b6000601f19601f8301169050919050565b61582d81615741565b811461583857600080fd5b50565b61584481615753565b811461584f57600080fd5b50565b61585b81615791565b811461586657600080fd5b5056fea365627a7a72315820e4bafa8713781c42a9320b87fb76dbe86da5941ea93a906f203a2ca85e3f97db6c6578706572696d656e74616cf564736f6c63430005110040",
  "source": "pragma solidity >=0.5.2;\npragma experimental ABIEncoderV2;\n\ncontract Land {\n    struct Landreg {\n        uint id;\n        string landAddress;\n        string area;\n        string city;\n        string district;\n        string country;\n        uint landPrice;\n        string propertyID;\n    }\n\n    struct Buyer {\n        address id;\n        string name;\n        uint age;\n        string city;\n        string HKID;\n        string email;\n    }\n\n    struct Seller {\n        address id;\n        string name;\n        uint age;\n        string HKID;\n    }\n\n    struct LandRequest {\n        uint reqId;\n        address sellerId;\n        address buyerId;\n        uint landId;\n    }\n\n    address public landInspector;\n\n    //key value pairs\n    mapping(uint => Landreg) public lands;\n    mapping(address => Seller) public SellerMapping;\n    mapping(address => Buyer) public BuyerMapping;\n    mapping(uint => LandRequest) public RequestsMapping;\n\n    // New mapping to track unique property IDs\n    mapping(string => bool) private propertyIDExists;\n\n    mapping(address => bool) public RegisteredAddressMapping;\n    mapping(address => bool) public RegisteredSellerMapping;\n    mapping(address => bool) public RegisteredBuyerMapping;\n    mapping(uint => address) public LandOwner;\n    mapping(uint => bool) public RequestStatus;\n    mapping(uint => bool) public RequestedLands;\n    mapping(uint => bool) public PaymentReceived;\n\n    mapping(uint => bool) public landApprovalStatus; // Tracks if land is approved by the land inspector\n    mapping(uint => bool) public saleApprovalStatus; // Tracks if the sale is approved by the land inspector\n\n    // address public Land_Inspector;\n    address[] public sellers;\n    address[] public buyers;\n\n    uint public landsCount;\n    // uint public inspectorsCount;\n    uint public sellersCount;\n    uint public buyersCount;\n    uint public requestsCount;\n\n    event Registration(address _registrationId);\n    event AddingLand(uint indexed _landId);\n    event Landrequested(address _sellerId);\n    event requestApproved(address _buyerId);\n    event LandOwnershipTransferred(\n        uint indexed landId,\n        address indexed seller,\n        address indexed buyer\n    );\n\n    event LandAdded(uint indexed _landId, address indexed _seller);\n    event LandApproved(uint indexed _landId);\n    event SaleRequested(\n        uint indexed _landId,\n        address indexed _seller,\n        address indexed _buyer\n    );\n    event SaleApproved(\n        uint indexed _landId,\n        address indexed _seller,\n        address indexed _buyer\n    );\n    event PaymentMade(\n        uint indexed _landId,\n        address indexed _seller,\n        address indexed _buyer\n    );\n\n    // Constructor to set the deployer as the initial land inspector\n    constructor() public {\n        landInspector = msg.sender;\n    }\n\n    // Modifier to check if the caller is the land inspector\n    modifier onlyLandInspector() {\n        require(\n            msg.sender == landInspector,\n            \"Caller is not the land inspector\"\n        );\n        _;\n    }\n\n    function getLandsCount() public view returns (uint) {\n        return landsCount;\n    }\n\n    function getBuyersCount() public view returns (uint) {\n        return buyersCount;\n    }\n\n    function getSellersCount() public view returns (uint) {\n        return sellersCount;\n    }\n\n    function getRequestsCount() public view returns (uint) {\n        return requestsCount;\n    }\n    function getArea(uint i) public view returns (string memory) {\n        return lands[i].area;\n    }\n    function getCity(uint i) public view returns (string memory) {\n        return lands[i].city;\n    }\n    function getDistrict(uint i) public view returns (string memory) {\n        return lands[i].district;\n    }\n    function getPrice(uint i) public view returns (uint) {\n        return lands[i].landPrice;\n    }\n    function getPID(uint i) public view returns (string memory) {\n        return lands[i].propertyID;\n    }\n\n    function getLandOwner(uint id) public view returns (address) {\n        return LandOwner[id];\n    }\n\n    function isSeller(address _id) public view returns (bool) {\n        if (RegisteredSellerMapping[_id]) {\n            return true;\n        }\n    }\n\n    function isBuyer(address _id) public view returns (bool) {\n        if (RegisteredBuyerMapping[_id]) {\n            return true;\n        }\n    }\n    function isRegistered(address _id) public view returns (bool) {\n        if (RegisteredAddressMapping[_id]) {\n            return true;\n        }\n    }\n\n    function addLand(\n        string memory _landAddress,\n        string memory _area,\n        string memory _city,\n        string memory _district,\n        string memory _country,\n        uint _landPrice,\n        string memory _propertyID\n    ) public {\n        require(isSeller(msg.sender), \"Only sellers can add lands.\");\n        require(\n            !propertyIDExists[_propertyID],\n            \"Property ID is already registered.\"\n        );\n\n        landsCount++;\n        lands[landsCount] = Landreg(\n            landsCount,\n            _landAddress,\n            _area,\n            _city,\n            _district,\n            _country,\n            _landPrice,\n            _propertyID\n        );\n        landApprovalStatus[landsCount] = false; // Initially not approved\n        LandOwner[landsCount] = msg.sender;\n        propertyIDExists[_propertyID] = true; // Mark this property ID as registered\n\n        RequestStatus[landsCount] = false;\n        RequestedLands[landsCount] = false;\n        saleApprovalStatus[landsCount] = false;\n\n        // Emit an event that land has been added\n        emit LandAdded(landsCount, msg.sender);\n    }\n\n    // Function for the land inspector to approve land\n    function approveLand(uint _landId) public onlyLandInspector {\n        require(!landApprovalStatus[_landId], \"Land has already been approved\");\n        landApprovalStatus[_landId] = true;\n\n        // Emit an event that land has been approved\n        emit LandApproved(_landId);\n    }\n\n    function getLandDetails(\n        uint _landId\n    )\n        public\n        view\n        returns (\n            uint,\n            string memory,\n            string memory,\n            string memory,\n            string memory,\n            string memory,\n            uint,\n            string memory\n        )\n    {\n        require(\n            _landId > 0 && _landId <= landsCount,\n            \"Land ID is out of bounds\"\n        );\n\n        Landreg memory land = lands[_landId];\n        return (\n            land.id,\n            land.landAddress,\n            land.area,\n            land.city,\n            land.district,\n            land.country,\n            land.landPrice,\n            land.propertyID\n        );\n    }\n\n    //registration of seller\nfunction registerSeller(\n    string memory _name,\n    uint _age,\n    string memory _HKID\n) public {\n    // Only increase count and add to sellers[] if not already registered\n    if (!RegisteredSellerMapping[msg.sender]) {\n        sellersCount++;\n        sellers.push(msg.sender);\n    }\n\n    // Mark as registered\n    RegisteredAddressMapping[msg.sender] = true;\n    RegisteredSellerMapping[msg.sender] = true;\n\n    // Overwrite or add seller details\n    SellerMapping[msg.sender] = Seller(msg.sender, _name, _age, _HKID);\n\n    emit Registration(msg.sender);\n}\n\n\n    function updateSeller(\n        string memory _name,\n        uint _age,\n        string memory _HKID\n    ) public {\n        //require that Seller is already registered\n        require(\n            RegisteredAddressMapping[msg.sender] &&\n                (SellerMapping[msg.sender].id == msg.sender)\n        );\n\n        SellerMapping[msg.sender].name = _name;\n        SellerMapping[msg.sender].age = _age;\n        SellerMapping[msg.sender].HKID = _HKID;\n    }\n\n    function getSeller() public view returns (address[] memory) {\n        return (sellers);\n    }\n\n    function getSellerDetails(\n        address i\n    ) public view returns (string memory, uint, string memory) {\n        return (\n            SellerMapping[i].name,\n            SellerMapping[i].age,\n            SellerMapping[i].HKID\n        );\n    }\n\n    function registerBuyer(\n    string memory _name,\n    uint _age,\n    string memory _city,\n    string memory _HKID,\n    string memory _email\n) public {\n    //require that Buyer is not already registered\n    require(!RegisteredAddressMapping[msg.sender]);\n\n    RegisteredAddressMapping[msg.sender] = true;\n    RegisteredBuyerMapping[msg.sender] = true;\n    buyersCount++;\n    BuyerMapping[msg.sender] = Buyer(\n        msg.sender,\n        _name,\n        _age,\n        _city,\n        _HKID,\n        _email\n    );\n    buyers.push(msg.sender);\n\n    emit Registration(msg.sender);\n}\n\n    function updateBuyer(\n        string memory _name,\n        uint _age,\n        string memory _city,\n        string memory _email,\n        string memory _HKID\n    ) public {\n        //require that Buyer is already registered\n        require(\n            RegisteredAddressMapping[msg.sender] &&\n                (BuyerMapping[msg.sender].id == msg.sender)\n        );\n\n        BuyerMapping[msg.sender].name = _name;\n        BuyerMapping[msg.sender].age = _age;\n        BuyerMapping[msg.sender].city = _city;\n        BuyerMapping[msg.sender].HKID = _HKID;\n        BuyerMapping[msg.sender].email = _email;\n    }\n\n    function getBuyer() public view returns (address[] memory) {\n        return (buyers);\n    }\n\n    function getBuyerDetails(\n        address i\n    )\n        public\n        view\n        returns (\n            string memory,\n            string memory,\n            string memory,\n            uint,\n            string memory\n        )\n    {\n        return (\n            BuyerMapping[i].name,\n            BuyerMapping[i].city,\n            BuyerMapping[i].email,\n            BuyerMapping[i].age,\n            BuyerMapping[i].HKID\n        );\n    }\n\n    function requestLand(address _sellerId, uint _landId) public {\n        require(isBuyer(msg.sender));\n\n        requestsCount++;\n        RequestsMapping[requestsCount] = LandRequest(\n            requestsCount,\n            _sellerId,\n            msg.sender,\n            _landId\n        );\n        RequestStatus[requestsCount] = false;\n        RequestedLands[requestsCount] = true;\n\n        emit Landrequested(_sellerId);\n    }\n\n    // Function for the land inspector to approve the sale\n    function approveSale(uint _reqId) public onlyLandInspector {\n        require(\n            RequestedLands[RequestsMapping[_reqId].landId],\n            \"Land has not been requested\"\n        );\n        require(!saleApprovalStatus[_reqId], \"Sale has already been approved\");\n\n        RequestStatus[_reqId] = true;\n        saleApprovalStatus[_reqId] = true; // Mark sale as approved by the land inspector\n\n        // Emit an event that sale has been approved\n        emit SaleApproved(\n            RequestsMapping[_reqId].landId,\n            RequestsMapping[_reqId].sellerId,\n            RequestsMapping[_reqId].buyerId\n        );\n    }\n\n    function getRequestDetails(\n        uint i\n    ) public view returns (address, address, uint, bool) {\n        return (\n            RequestsMapping[i].sellerId,\n            RequestsMapping[i].buyerId,\n            RequestsMapping[i].landId,\n            RequestStatus[i]\n        );\n    }\n\n    function isLandApproved(uint _landId) public view returns (bool) {\n        return landApprovalStatus[_landId];\n    }\n\n    function isSaleApproved(uint _reqId) public view returns (bool) {\n        return saleApprovalStatus[_reqId];\n    }\n\n    function isRequested(uint _id) public view returns (bool) {\n        if (RequestedLands[_id]) {\n            return true;\n        } else {\n            return false;\n        }\n    }\n\n    function isApproved(uint _id) public view returns (bool) {\n        if (RequestStatus[_id]) {\n            return true;\n        } else {\n            return false;\n        }\n    }\n\n    function approveRequest(uint _reqId) public {\n        require(isSeller(msg.sender));\n\n        RequestStatus[_reqId] = true;\n    }\n\n    function isPaid(uint _landId) public view returns (bool) {\n        if (PaymentReceived[_landId]) {\n            return true;\n        }\n    }\n\n    function payment(address payable _seller, uint _landId) public payable {\n        require(LandOwner[_landId] == _seller, \"Seller does not own the land\");\n        require(msg.value == lands[_landId].landPrice, \"Incorrect payment amount\");\n        require(isBuyer(msg.sender), \"Only registered buyers can make payments\");\n        require(landApprovalStatus[_landId], \"Land has not been approved by the inspector\");\n        // Find the request ID associated with this land and buyer\n        uint _reqId = findRequest(_seller, _landId, msg.sender);\n        require(saleApprovalStatus[_reqId], \"Sale has not beenapproved by the inspector\");\n        require(LandOwner[_landId] == _seller, \"Seller does not own the land.\");\n        require(\n            msg.value == lands[_landId].landPrice,\n            \"Incorrect payment amount.\"\n        );\n        require(\n            isBuyer(msg.sender),\n            \"Only registered buyers can make payments.\"\n        );\n\n        // Transfer the land price to the seller\n        _seller.transfer(msg.value);\n\n        // Update the land ownership\n        LandOwner[_landId] = msg.sender;\n\n        // Mark the payment as received\n        PaymentReceived[_landId] = true;\n\n        // Emit an event that payment has been made\n        emit PaymentMade(_landId, _seller, msg.sender);\n\n        // Emit an event, if you have one for successful payment/transfer\n        emit LandOwnershipTransferred(_landId, _seller, msg.sender);\n    }\n\n    // Helper function to find the request ID based on land and buyer\n    function findRequest(address _seller, uint _landId, address _buyer) internal view returns (uint) {\n        for (uint i = 1; i <= requestsCount; i++) {\n            if (RequestsMapping[i].sellerId == _seller && RequestsMapping[i].buyerId == _buyer && RequestsMapping[i].landId == _landId) {\n                return i;\n            }\n        }\n        revert(\"Request not found\");\n    }\n}\n",
  "sourcePath": "/Users/abhinavgupta/Desktop/Land_Registration_DAPP-Blockchain-main 1.31.28AM/web3/contracts/Land.sol",
  "compiler": {
    "name": "solc",
    "version": "0.5.17+commit.d19bba13.Emscripten.clang"
  },
  "schemaVersion": "3.4.16",
  "updatedAt": "2025-04-19T20:53:13.456Z",
  "networkType": "ethereum",
  "devdoc": {
    "methods": {}
  },
  "userdoc": {
    "methods": {}
  }
}